{
  "contractName": "Counter",
  "abi": [
    {
      "inputs": [],
      "name": "increment",
      "outputs": [],
      "stateMutability": "nonpayable",
      "type": "function"
    },
    {
      "inputs": [],
      "name": "decrement",
      "outputs": [],
      "stateMutability": "nonpayable",
      "type": "function"
    },
    {
      "inputs": [],
      "name": "getCount",
      "outputs": [
        {
          "internalType": "uint256",
          "name": "",
          "type": "uint256"
        }
      ],
      "stateMutability": "view",
      "type": "function",
      "constant": true
    }
  ],
  "bytecode": "0x608060405234801561001057600080fd5b50610291806100206000396000f3fe608060405234801561001057600080fd5b50600436106100415760003560e01c80632baeceb714610046578063a87d942c14610050578063d09de08a1461006e575b600080fd5b61004e610078565b005b6100586100d0565b604051610065919061017d565b60405180910390f35b610076610116565b005b60016000803373ffffffffffffffffffffffffffffffffffffffff1673ffffffffffffffffffffffffffffffffffffffff16815260200190815260200160002060008282546100c791906101ee565b92505081905550565b60008060003373ffffffffffffffffffffffffffffffffffffffff1673ffffffffffffffffffffffffffffffffffffffff16815260200190815260200160002054905090565b60016000803373ffffffffffffffffffffffffffffffffffffffff1673ffffffffffffffffffffffffffffffffffffffff16815260200190815260200160002060008282546101659190610198565b92505081905550565b61017781610222565b82525050565b6000602082019050610192600083018461016e565b92915050565b60006101a382610222565b91506101ae83610222565b9250827fffffffffffffffffffffffffffffffffffffffffffffffffffffffffffffffff038211156101e3576101e261022c565b5b828201905092915050565b60006101f982610222565b915061020483610222565b9250828210156102175761021661022c565b5b828203905092915050565b6000819050919050565b7f4e487b7100000000000000000000000000000000000000000000000000000000600052601160045260246000fdfea2646970667358221220e8496dcc38e2dde3e7cd1d57637da8339eb43edd0a792334d7569b51cafa7e0f64736f6c63430008040033",
  "immutableReferences": {},
  "source": "pragma solidity ^0.8.0;\r\n\r\ncontract Counter {\r\n  mapping(address => uint256) private counts;\r\n\r\n  function increment() public {\r\n    counts[msg.sender] += 1;\r\n  }\r\n\r\n  function decrement() public {\r\n    counts[msg.sender] -= 1;\r\n  }\r\n\r\n  function getCount() public view returns (uint256) {\r\n    return counts[msg.sender];\r\n  }\r\n}",
  "sourcePath": "D:/falseman/2021-04-22/counter-dapp-react/contracts/Counter.sol",
  "compiler": {
    "name": "solc",
    "version": "0.8.4+commit.c7e474f2.Emscripten.clang"
  },
  "schemaVersion": "3.3.4",
  "updatedAt": "2021-04-23T11:50:22.312Z",
  "networkType": "ethereum",
  "devdoc": {
    "kind": "dev",
    "methods": {},
    "version": 1
  },
  "userdoc": {
    "kind": "user",
    "methods": {},
    "version": 1
  }
}