{
  "contractName": "Counter",
  "abi": [
    {
      "inputs": [],
      "name": "increments",
      "outputs": [],
      "stateMutability": "nonpayable",
      "type": "function"
    },
    {
      "inputs": [],
      "name": "decrements",
      "outputs": [],
      "stateMutability": "nonpayable",
      "type": "function"
    },
    {
      "inputs": [],
      "name": "getCount",
      "outputs": [
        {
          "internalType": "uint256",
          "name": "",
          "type": "uint256"
        }
      ],
      "stateMutability": "view",
      "type": "function",
      "constant": true
    }
  ],
  "bytecode": "0x608060405234801561001057600080fd5b50610291806100206000396000f3fe608060405234801561001057600080fd5b50600436106100415760003560e01c806356aa2dc514610046578063a1d2895914610050578063a87d942c1461005a575b600080fd5b61004e610078565b005b6100586100d0565b005b610062610128565b60405161006f919061017d565b60405180910390f35b60016000803373ffffffffffffffffffffffffffffffffffffffff1673ffffffffffffffffffffffffffffffffffffffff16815260200190815260200160002060008282546100c79190610198565b92505081905550565b60016000803373ffffffffffffffffffffffffffffffffffffffff1673ffffffffffffffffffffffffffffffffffffffff168152602001908152602001600020600082825461011f91906101ee565b92505081905550565b60008060003373ffffffffffffffffffffffffffffffffffffffff1673ffffffffffffffffffffffffffffffffffffffff16815260200190815260200160002054905090565b61017781610222565b82525050565b6000602082019050610192600083018461016e565b92915050565b60006101a382610222565b91506101ae83610222565b9250827fffffffffffffffffffffffffffffffffffffffffffffffffffffffffffffffff038211156101e3576101e261022c565b5b828201905092915050565b60006101f982610222565b915061020483610222565b9250828210156102175761021661022c565b5b828203905092915050565b6000819050919050565b7f4e487b7100000000000000000000000000000000000000000000000000000000600052601160045260246000fdfea2646970667358221220605315feda12a3e0781321c3acea65ae37bb09a29b100c0368a0e21a2736409864736f6c63430008040033",
  "immutableReferences": {},
  "source": "pragma solidity ^0.8.0;\r\n\r\ncontract Counter {\r\n  mapping(address => uint256) private counts;\r\n\r\n  function increments() public {\r\n    counts[msg.sender] += 1;\r\n  }\r\n\r\n  function decrements() public {\r\n    counts[msg.sender] -= 1;\r\n  }\r\n\r\n  function getCount() public view returns (uint256) {\r\n    return counts[msg.sender];\r\n  }\r\n}",
  "sourcePath": "D:/falseman/2021-04-22/counter-dapp-react/contracts/Counter.sol",
  "compiler": {
    "name": "solc",
    "version": "0.8.4+commit.c7e474f2.Emscripten.clang"
  },
  "schemaVersion": "3.3.4",
  "updatedAt": "2021-04-22T23:30:53.917Z",
  "networkType": "ethereum",
  "devdoc": {
    "kind": "dev",
    "methods": {},
    "version": 1
  },
  "userdoc": {
    "kind": "user",
    "methods": {},
    "version": 1
  }
}